:100000000C942A000C947A180C9447000C94470026
:100010000C9447000C9447000C9447000C94470044
:100020000C9447000C9447000C9447000C94470034
:100030000C9447000C9447000C9447000C94470024
:100040000C9447000C9447000C9447000C94470014
:100050000C94470011241FBECFE5D8E0DEBFCDBF12
:1000600011E0A0E6B0E0E0E7F2E402C005900D92F6
:10007000A63CB107D9F711E0A6ECB1E001C01D9292
:10008000A03DB107E1F70E94FA140C9436210C94BC
:100090000000EF92FF920F931F937B018C0120E0F1
:1000A00030E040E05FE40E94250488238CF0C80122
:1000B000B70120E030E040E05FE40E94C1010E940F
:1000C00085049B01AC01205030404040504806C0A0
:1000D000C801B7010E9485049B01AC01B901CA01A6
:1000E0001F910F91FF90EF900895A0E0B0E0EBE733
:1000F000F0E00C941120DC012B01FA019C9192306C
:1001000008F439C1EB018881823008F433C194309E
:1001100069F4843009F02FC111969C91119789815F
:10012000981709F428C1A6EBB0E025C1843009F482
:1001300021C18230A9F4923009F01DC19A01AD01AC
:1001400088E0EA010990AE01E90109929E0181501F
:10015000C1F7E201898111969C918923818308C1AD
:10016000923009F407C112962D903C901397EB0141
:100170008A819B811496AD90BD90CD90DC901797AD
:10018000EC80FD800E811F819101281B390BB90184
:1001900037FF04C066277727621B730B6032710537
:1001A0000CF061C0121613066CF537014801062EDB
:1001B00004C096948794779467940A94D2F721E0C8
:1001C00030E040E050E004C0220F331F441F551FB1
:1001D0006A95D2F721503040404050402E213F21B7
:1001E00040235123211531054105510521F021E01E
:1001F00030E040E050E079018A01E628F72808293C
:1002000019293CC0232BD1F1260E371E350146019A
:10021000062E04C096948794779467940A94D2F734
:1002200021E030E040E050E004C0220F331F441FC3
:10023000551F6A95D2F721503040404050402A2146
:100240003B214C215D21211531054105510521F04E
:1002500021E030E040E050E059016A01A628B728CB
:10026000C828D9280BC0821593052CF01C01AA249C
:10027000BB24650103C0EE24FF24870111969C91E5
:10028000D20111968C91981709F445C0992339F041
:10029000A80197012A193B094C095D0906C0A6016E
:1002A00095012E193F09400B510B57FD08C01182D3
:1002B0003382228224833583468357831DC081E0A5
:1002C00081833382228288279927DC01821B930B4A
:1002D000A40BB50B84839583A683B7830DC0220F2F
:1002E000331F441F551F24833583468357838281E0
:1002F000938101979383828324813581468157813D
:10030000DA01C9010197A109B1098F5F9F4FAF4F72
:10031000BF4328F30BC0918333822282EA0CFB1C7B
:100320000C1D1D1DE482F5820683178383E0808304
:10033000248135814681578157FF1AC0C901AA27F8
:1003400097FDA095BA2F81709070A070B0705695EF
:10035000479537952795822B932BA42BB52B848318
:100360009583A683B7838281938101969383828349
:10037000DF0101C0D201CD01CDB7DEB7E2E10C94BF
:100380002D20A0E2B0E0E7ECF1E00C941D206983A1
:100390007A838B839C832D833E834F835887E9E048
:1003A000EE2EF12CEC0EFD1ECE010196B7010E943F
:1003B00076068E010F5E1F4FCE010596B8010E9492
:1003C00076068A8991E089278A8BC701B801AE0138
:1003D000475E5F4F0E9475000E94A105A096E6E06F
:1003E0000C943920A0E2B0E0E8EFF1E00C941D207D
:1003F00069837A838B839C832D833E834F835887C5
:10040000F9E0EF2EF12CEC0EFD1ECE010196B701A6
:100410000E9476068E010F5E1F4FCE010596B80131
:100420000E947606C701B801AE01475E5F4F0E9489
:1004300075000E94A105A096E6E00C943920A0E288
:10044000B0E0E5E2F2E00C94112069837A838B83BB
:100450009C832D833E834F835887CE010196BE0136
:10046000675F7F4F0E947606CE010596BE016F5EE4
:100470007F4F0E9476069985923088F08989823074
:10048000C8F0943019F4823051F404C0843029F457
:10049000923081F486EB90E0C6C0923049F420E0BF
:1004A0009A858A89981321E02A87CE010996BBC0D4
:1004B000823049F420E09A858A89981321E02A8BBA
:1004C000CE014196B0C02D843E844F8458886D88FB
:1004D0007E888F88988CEE24FF248701AA24BB2471
:1004E000650140E050E060E070E0E0E0F0E0C10174
:1004F00081709070892BE9F0E60CF71C081D191D1E
:100500009A01AB012A0D3B1D4C1D5D1D80E090E062
:10051000A0E0B0E0E614F7040805190520F481E036
:1005200090E0A0E0B0E0BA01A901480F591F6A1F8E
:100530007B1FAA0CBB1CCC1CDD1C97FE08C081E0F5
:1005400090E0A0E0B0E0A82AB92ACA2ADB2A3196B6
:10055000E032F10549F0660C771C881C991C569412
:10056000479437942794C3CFFA85EA892B893C892D
:100570008B859C85280F391F2E5F3F4F17C0CA01FE
:1005800081709070892B61F016950795F794E79428
:1005900080E090E0A0E0B0E8E82AF92A0A2B1B2BC3
:1005A00076956795579547952F5F3F4F77FDE7CF36
:1005B0000CC0440F551F661F771F17FD4160EE0CDE
:1005C000FF1C001F111F21503040403090E05907A0
:1005D00090E0690790E4790760F32B8F3C8FDB0193
:1005E000CA018F779070A070B07080349105A1051A
:1005F000B10561F447FD0AC0E114F10401051105DC
:1006000029F0405C5F4F6F4F7F4F40781A8EFE1786
:1006100011F081E08A8F4D8F5E8F6F8F78A383E01A
:10062000898FCE0149960E94A105A096E2E10C9423
:100630002D20A8E1B0E0EFE1F3E00C9419206983EC
:100640007A838B839C832D833E834F835887B9E0C5
:10065000EB2EF12CEC0EFD1ECE010196B7010E948F
:1006600076068E010F5E1F4FCE010596B8010E94DF
:1006700076062985223008F47EC03989323010F49C
:10068000B8017CC08A859A8989278A87243011F02D
:10069000223031F4231709F06EC066EB70E06EC0B3
:1006A000343039F41D861E861F86188A1C861B86E8
:1006B00004C0323021F484E08987B7015FC02B8504
:1006C0003C858B899C89281B390B3C872B87ED84C3
:1006D000FE840F851889AD88BE88CF88D88CEA142F
:1006E000FB040C051D0540F4EE0CFF1C001F111F40
:1006F000215030403C872B8720E030E040E050E044
:1007000080E090E0A0E0B0E460E070E0EA14FB0478
:100710000C051D0540F0282B392B4A2B5B2BEA18C2
:10072000FB080C091D09B695A79597958795EE0CC2
:10073000FF1C001F111F6F5F7F4F6F31710531F775
:10074000DA01C9018F779070A070B0708034910584
:10075000A105B10561F427FD0AC0E114F10401050A
:10076000110529F0205C3F4F4F4F5F4F20782D87B8
:100770003E874F87588BBE01675F7F4FCB010E943A
:10078000A1056896EAE00C943520A8E1B0E0EBEC16
:10079000F3E00C941D2069837A838B839C832D83E3
:1007A0003E834F83588789E0E82EF12CEC0EFD1E26
:1007B000CE010196B7010E9476068E010F5E1F4F93
:1007C000CE010596B8010E9476068985823040F0F8
:1007D0008989823028F0C701B8010E94EE0601C065
:1007E00081E06896E6E00C943920A8E1B0E0EBEFF8
:1007F000F3E00C941D2069837A838B839C832D8383
:100800003E834F83588789E0E82EF12CEC0EFD1EC5
:10081000CE010196B7010E9476068E010F5E1F4F32
:10082000CE010596B8010E9476068985823040F097
:100830008989823028F0C701B8010E94EE0601C004
:100840008FEF6896E6E00C943920A8E1B0E0EBE287
:10085000F4E00C941D2069837A838B839C832D8321
:100860003E834F83588789E0E82EF12CEC0EFD1E65
:10087000CE010196B7010E9476068E010F5E1F4FD2
:10088000CE010596B8010E9476068985823040F037
:100890008989823028F0C701B8010E94EE0601C0A4
:1008A0008FEF6896E6E00C943920A8E1B0E0EBE524
:1008B000F4E00C941D2069837A838B839C832D83C1
:1008C0003E834F83588789E0E82EF12CEC0EFD1E05
:1008D000CE010196B7010E9476068E010F5E1F4F72
:1008E000CE010596B8010E9476068985823040F0D7
:1008F0008989823028F0C701B8010E94EE0601C044
:1009000081E06896E6E00C943920ACE0B0E0EBE8DA
:10091000F4E00C94212069837A838B839C83CE013D
:100920000196BE016B5F7F4F0E9476068D818230FB
:1009300061F1823050F1843021F48E81882351F1AD
:100940002EC02F81388537FD20C06E812F313105B3
:100950001CF06623F9F023C08EE190E0821B930B1C
:1009600029853A854B855C8504C056954795379512
:1009700027958A95D2F76623B1F05095409530952A
:1009800021953F4F4F4F5F4F0EC020E030E040E0D9
:1009900050E009C02FEF3FEF4FEF5FE704C020E0CA
:1009A00030E040E050E8B901CA012C96E2E00C9436
:1009B0003D20A8E0B0E0EFEDF4E00C9419207B01BD
:1009C0008C01611571058105910519F482E0898317
:1009D00060C083E089838EE1C82ED12CDC82CB827B
:1009E000ED82FE820F831887C801B7010E9452056D
:1009F000FC013197F7FF3BC0222733272E1B3F0B0B
:100A000057016801022E04C0D694C794B794A794E6
:100A10000A94D2F740E050E060E070E081E090E0BE
:100A2000A0E0B0E004C0880F991FAA1FBB1F2A9541
:100A3000D2F70197A109B1098E219F21A023B123EB
:100A40000097A105B10521F041E050E060E070E0C1
:100A50004A295B296C297D294D835E836F837887C2
:100A60008EE190E08E1B9F0B9C838B8312C030978E
:100A700081F00E2E04C0EE0CFF1C001F111F0A9403
:100A8000D2F7ED82FE820F831887CE1ADF0ADC824E
:100A9000CB821A82CE0101960E94A1052896EAE037
:100AA0000C943520EF92FF920F931F937B018C01E2
:100AB00080E0E81680E0F80681E0080780E018078B
:100AC00088F48FEFE816F1040105110531F028F0E4
:100AD00088E090E0A0E0B0E017C080E090E0A0E007
:100AE000B0E012C080E0E81680E0F80680E0080779
:100AF00081E0180728F088E190E0A0E0B0E004C0B1
:100B000080E190E0A0E0B0E020E230E040E050E0A2
:100B1000281B390B4A0B5B0B04C016950795F794FD
:100B2000E7948A95D2F7F701E254FF4F8081281BA2
:100B3000310941095109C9011F910F91FF90EF90AF
:100B40000895DF92EF92FF920F931F93FC01E480D0
:100B5000F58006811781D1808081823048F480E061
:100B600090E0A0E1B0E0E82AF92A0A2B1B2BA5C0EF
:100B7000843009F49FC0823021F4EE24FF248701E1
:100B800005C0E114F1040105110519F4E0E0F0E0FD
:100B900096C0628173819FEF623879070CF05BC069
:100BA00022E83FEF261B370B2A3131052CF020E0DD
:100BB00030E040E050E02AC0B801A701022E04C096
:100BC00076956795579547950A94D2F781E090E01E
:100BD000A0E0B0E004C0880F991FAA1FBB1F2A9590
:100BE000D2F70197A109B1098E219F21A023B1233A
:100BF0000097A105B10521F081E090E0A0E0B0E010
:100C00009A01AB01282B392B4A2B5B2BDA01C90146
:100C10008F779070A070B07080349105A105B105F8
:100C200039F427FF09C0205C3F4F4F4F5F4F04C08E
:100C3000215C3F4F4F4F5F4FE0E0F0E02030A0E0FD
:100C40003A07A0E04A07A0E45A0710F0E1E0F0E01C
:100C500079018A0127C06038710564F5FB01E1580C
:100C6000FF4FD801C7018F779070A070B0708034AB
:100C70009105A105B10539F4E7FE0DC080E490E0CF
:100C8000A0E0B0E004C08FE390E0A0E0B0E0E80EA8
:100C9000F91E0A1F1B1F17FF05C016950795F7942D
:100CA000E794319687E016950795F794E7948A952F
:100CB000D1F705C0EE24FF248701EFEFF0E06E2F9F
:100CC000679566276795902F9F77D794DD24D794F3
:100CD0008E2F8695492F462B582F5D29B701CA01C3
:100CE0001F910F91FF90EF90DF900895FC01DB01C1
:100CF000408151812281622F6F7770E0221F22276D
:100D0000221F9381892F880F822B282F30E0991F73
:100D10009927991F11969C93119721153105A9F5D3
:100D2000411551056105710511F482E037C082E873
:100D30009FEF13969C938E9312979A01AB0167E0F5
:100D4000220F331F441F551F6A95D1F783E08C9300
:100D50000DC0220F331F441F551F12968D919C9179
:100D60001397019713969C938E931297203080E0EF
:100D7000380780E0480780E4580758F314962D930D
:100D80003D934D935C93179708952F3F310579F468
:100D9000411551056105710519F484E08C9308959E
:100DA00064FF03C081E08C9312C01C9210C02F57C7
:100DB000304013963C932E93129783E08C9387E0F8
:100DC000440F551F661F771F8A95D1F770641496DC
:100DD0004D935D936D937C93179708951F93DC015A
:100DE000FB019C91923008F447C08081823008F466
:100DF00043C0943051F411961C91843099F581814F
:100E0000682F70E0611B71093FC0843021F092307F
:100E100031F48230B9F18181882389F12DC0119696
:100E20001C9111978230F1F081811817D9F4129634
:100E30002D913C911397828193818217930794F0AF
:100E400028173907BCF014968D919D910D90BC9197
:100E5000A02D2481358146815781281739074A07FB
:100E60005B0718F4112341F00AC082179307A40707
:100E7000B50740F4112319F061E070E005C06FEF91
:100E80007FEF02C060E070E0CB011F910895DF9317
:100E9000CF9300D000D00F92CDB7DEB789836A839D
:100EA0004B838981843008F0D5C08A81883008F06E
:100EB000D1C08981282F30E03D832C838C819D8196
:100EC0008130910509F443C02C813D8122303105E8
:100ED0002CF48C819D81009771F0BCC02C813D81E8
:100EE0002230310509F45FC08C819D8183309105EA
:100EF00009F485C0AFC08B818130A1F4AAE3B0E0D2
:100F0000EAE3F0E08081482F8A81282F30E081E0F9
:100F100090E0022E02C0880F991F0A94E2F7842BFA
:100F20008C9398C0AAE3B0E0EAE3F0E08081482F18
:100F30008A81282F30E081E090E0022E02C0880FE5
:100F4000991F0A94E2F7809584238C9383C08B8148
:100F50008130A1F4A7E3B0E0E7E3F0E08081482F1F
:100F60008A81282F30E081E090E0022E02C0880FB5
:100F7000991F0A94E2F7842B8C936CC0A7E3B0E02E
:100F8000E7E3F0E08081482F8A81282F30E081E07C
:100F900090E0022E02C0880F991F0A94E2F7809514
:100FA00084238C9357C08B818130A1F4A4E3B0E0FB
:100FB000E4E3F0E08081482F8A81282F30E081E04F
:100FC00090E0022E02C0880F991F0A94E2F7842B4A
:100FD0008C9340C0A4E3B0E0E4E3F0E08081482FCC
:100FE0008A81282F30E081E090E0022E02C0880F35
:100FF000991F0A94E2F7809584238C932BC08B81F0
:101000008130A1F4A1E3B0E0E1E3F0E08081482F7A
:101010008A81282F30E081E090E0022E02C0880F04
:10102000991F0A94E2F7842B8C9314C0A1E3B0E0DB
:10103000E1E3F0E08081482F8A81282F30E081E0D1
:1010400090E0022E02C0880F991F0A94E2F7809563
:1010500084238C930F900F900F900F900F90CF914F
:10106000DF910895DF93CF9300D000D00F92CDB7DA
:10107000DEB789836A834B838981843008F0D5C0C9
:101080008A81883008F0D1C08981282F30E03D83E3
:101090002C838C819D818130910509F443C02C8182
:1010A0003D81223031052CF48C819D81009771F0B7
:1010B000BCC02C813D812230310509F45FC08C8198
:1010C0009D818330910509F485C0AFC08B8181304B
:1010D000A1F4ABE3B0E0EBE3F0E08081482F8A813C
:1010E000282F30E081E090E0022E02C0880F991F87
:1010F0000A94E2F7842B8C9398C0ABE3B0E0EBE367
:10110000F0E08081482F8A81282F30E081E090E054
:10111000022E02C0880F991F0A94E2F7809584235B
:101120008C9383C08B818130A1F4A8E3B0E0E8E325
:10113000F0E08081482F8A81282F30E081E090E024
:10114000022E02C0880F991F0A94E2F7842B8C9319
:101150006CC0A8E3B0E0E8E3F0E08081482F8A812A
:10116000282F30E081E090E0022E02C0880F991F06
:101170000A94E2F7809584238C9357C08B81813049
:10118000A1F4A5E3B0E0E5E3F0E08081482F8A8197
:10119000282F30E081E090E0022E02C0880F991FD6
:1011A0000A94E2F7842B8C9340C0A5E3B0E0E5E31A
:1011B000F0E08081482F8A81282F30E081E090E0A4
:1011C000022E02C0880F991F0A94E2F780958423AB
:1011D0008C932BC08B818130A1F4A2E3B0E0E2E3D9
:1011E000F0E08081482F8A81282F30E081E090E074
:1011F000022E02C0880F991F0A94E2F7842B8C9369
:1012000014C0A2E3B0E0E2E3F0E08081482F8A81DD
:10121000282F30E081E090E0022E02C0880F991F55
:101220000A94E2F7809584238C930F900F900F908F
:101230000F900F90CF91DF910895DF93CF9300D05F
:1012400000D00F92CDB7DEB78A836B8319828A8173
:10125000843008F084C08B81883008F080C08A8197
:10126000282F30E03D832C834C815D814130510536
:1012700079F18C819D818230910534F42C813D81FE
:101280002115310569F06BC04C815D8142305105FB
:10129000B9F18C819D818330910509F449C05FC00B
:1012A000E9E3F0E08081282F30E08B81882F90E007
:1012B000A90102C0559547958A95E2F7CA01817048
:1012C0009070882319F081E0898349C0198247C052
:1012D000E6E3F0E08081282F30E08B81882F90E0DA
:1012E000A90102C0559547958A95E2F7CA01817018
:1012F0009070882319F081E0898331C019822FC052
:10130000E3E3F0E08081282F30E08B81882F90E0AC
:10131000A90102C0559547958A95E2F7CA018170E7
:101320009070882319F081E0898319C0198217C051
:10133000E0E3F0E08081282F30E08B81882F90E07F
:10134000A90102C0559547958A95E2F7CA018170B7
:101350009070882319F081E0898301C01982898106
:101360000F900F900F900F900F90CF91DF910895F5
:10137000DF93CF9300D000D0CDB7DEB789836A83E7
:101380008981843090F58981282F30E03C832B833C
:101390008B819C8181309105D1F02B813C81223061
:1013A00031052CF48B819C81009761F01EC02B814C
:1013B0003C812230310581F08B819C818330910505
:1013C00081F013C0EAE3F0E08A8180830EC0E7E396
:1013D000F0E08A81808309C0E4E3F0E08A818083C1
:1013E00004C0E1E3F0E08A8180830F900F900F90BA
:1013F0000F90CF91DF910895DF93CF9300D000D06D
:10140000CDB7DEB789836A838981843090F589817D
:10141000282F30E03C832B838B819C818130910588
:10142000D1F02B813C81223031052CF48B819C81C1
:10143000009761F01EC02B813C812230310581F084
:101440008B819C818330910581F013C0EBE3F0E048
:101450008A8180830EC0E8E3F0E08A81808309C03E
:10146000E5E3F0E08A81808304C0E2E3F0E08A8172
:1014700080830F900F900F900F90CF91DF91089580
:10148000DF93CF9300D000D0CDB7DEB78A83198227
:101490008A81843090F58A81282F30E03C832B8329
:1014A0008B819C8181309105D1F02B813C81223050
:1014B00031052CF48B819C81009761F01EC02B813B
:1014C0003C812230310581F08B819C8183309105F4
:1014D00081F013C0E9E3F0E0898180830EC0E6E388
:1014E000F0E08981808309C0E3E3F0E089818083B3
:1014F00004C0E0E3F0E08981808389810F900F9040
:101500000F900F90CF91DF910895DF93CF93CDB7D8
:10151000DEB7A5E5B0E0E5E5F0E0808183608C937F
:10152000ABE5B0E0EBE5F0E0808180648C93AFE563
:10153000B0E0EFE5F0E0808180688C93CF91DF919F
:101540000895DF93CF93CDB7DEB72E970FB6F894FB
:10155000DEBF0FBECDBF81E061E041E00E944707E2
:1015600081E060E041E00E94470780E090E0A0EA6F
:10157000B1E48B879C87AD87BE876B857C858D8525
:101580009E8520E030E04AEF54E40E941F02DC0117
:10159000CB018F839887A987BA876F8178858985E2
:1015A0009A8520E030E040E85FE30E9455048823FC
:1015B0002CF481E090E09E838D833FC06F8178851D
:1015C00089859A8520E03FEF4FE757E40E94F503B5
:1015D00018164CF56B857C858D859E8520E030E066
:1015E00040E251E40E941F02DC01CB01BC01CD01AD
:1015F0000E944900DC01CB019E838D830FC088ECE3
:1016000090E09C838B838B819C810197F1F79C8375
:101610008B838D819E8101979E838D838D819E8199
:10162000009769F714C06F81788589859A850E9433
:101630004900DC01CB019E838D838D819E819A833D
:10164000898389819A810197F1F79A83898381E05F
:1016500064E041E00E94470781E065E041E00E94CC
:10166000470781E066E041E00E94470781E067E0CC
:1016700041E00E94470783E30E94530B82E30E94EC
:10168000530B88E20E94530B8CE00E94530B81E0C5
:101690000E94530B2E960FB6F894DEBF0FBECDBF3F
:1016A000CF91DF9108950F931F93DF93CF93CDB721
:1016B000DEB7C356D0400FB6F894DEBF0FBECDBF25
:1016C000FE01ED59FF4F808381E061E040E00E9420
:1016D0003208FE01E15AFF4F80E090E0A0E8BFE34E
:1016E00080839183A283B3838E01055A1F4FFE012D
:1016F000E15AFF4F608171818281938120E030E067
:101700004AEF54E40E941F02DC01CB01F801808300
:101710009183A283B383FE01E55AFF4F60817181FB
:101720008281938120E030E040E85FE30E9455042D
:10173000882344F4FE01E75AFF4F81E090E0918353
:10174000808364C0FE01E55AFF4F60817181828110
:10175000938120E03FEF4FE757E40E94F50318160E
:101760000CF043C0FE01E15AFF4F6081718182811C
:10177000938120E030E040E251E40E941F02DC014E
:10178000CB018E01075A1F4FBC01CD010E944900B9
:10179000DC01CB01F801918380831FC0FE01E95A6F
:1017A000FF4F88EC90E091838083FE01E95AFF4F60
:1017B000808191810197F1F7FE01E95AFF4F9183F2
:1017C0008083DE01A75ABF4FFE01E75AFF4F808199
:1017D0009181019711969C938E93FE01E75AFF4FDA
:1017E000808191810097D1F627C08E01075A1F4F43
:1017F000FE01E55AFF4F60817181828193810E94D1
:101800004900DC01CB01F80191838083DE01AB5AF2
:10181000BF4FFE01E75AFF4F808191818D939C93CA
:10182000FE01EB5AFF4F808191810197F1F7FE0194
:10183000EB5AFF4F9183808381E060E041E00E949A
:101840003208FE01EF5AFF4F80E090E0A0E8BFE3CE
:1018500080839183A283B3838E01035B1F4FFE01BC
:10186000EF5AFF4F608171818281938120E030E0E7
:101870004AEF54E40E941F02DC01CB01F80180838F
:101880009183A283B383FE01E35BFF4F608171818B
:101890008281938120E030E040E85FE30E945504BC
:1018A000882344F4FE01E55BFF4F81E090E09183E3
:1018B000808364C0FE01E35BFF4F608171818281A0
:1018C000938120E03FEF4FE757E40E94F50318169D
:1018D0000CF043C0FE01EF5AFF4F6081718182819D
:1018E000938120E030E040E251E40E941F02DC01DD
:1018F000CB018E01055B1F4FBC01CD010E94490049
:10190000DC01CB01F801918380831FC0FE01E75BFE
:10191000FF4F88EC90E091838083FE01E75BFF4FEF
:10192000808191810197F1F7FE01E75BFF4F918381
:101930008083DE01A55BBF4FFE01E55BFF4F808129
:101940009181019711969C938E93FE01E55BFF4F69
:10195000808191810097D1F627C08E01055B1F4FD2
:10196000FE01E35BFF4F60817181828193810E9460
:101970004900DC01CB01F80191838083DE01A95B82
:10198000BF4FFE01E55BFF4F808191818D939C935A
:10199000FE01E95BFF4F808191810197F1F7FE0124
:1019A000E95BFF4F91838083FE01ED59FF4F8081FA
:1019B000882F90E080719070959587959595879583
:1019C0009595879595958795982F81E064E0492FA7
:1019D0000E943208FE01ED59FF4F8081882F90E070
:1019E0008072907095958795959587959595879533
:1019F0009595879595958795982F81E065E0492F76
:101A00000E943208FE01ED59FF4F8081882F90E03F
:101A100080749070082E892F000C881F990B000C81
:101A2000881F991F982F81E066E0492F0E94320895
:101A3000FE01ED59FF4F8081982F991F9927991F1B
:101A400081E067E0492F0E943208FE01ED5BFF4F05
:101A500080E090E0A0E8BFE380839183A283B3831A
:101A60008E01015C1F4FFE01ED5BFF4F60817181B4
:101A70008281938120E030E04AEF54E40E941F020B
:101A8000DC01CB01F80180839183A283B383FE0143
:101A9000FF96608171818281938120E030E040E88F
:101AA0005FE30E94550488232CF481E090E09EAF10
:101AB0008DAF46C0FE01FF96608171818281938166
:101AC00020E03FEF4FE757E40E94F503181664F556
:101AD000FE01ED5BFF4F608171818281938120E087
:101AE00030E040E251E40E941F02DC01CB01BC0166
:101AF000CD010E944900DC01CB019EAF8DAF0FC02C
:101B000088EC90E09CAF8BAF8BAD9CAD0197F1F76B
:101B10009CAF8BAF8DAD9EAD01979EAF8DAF8DAD60
:101B20009EAD009769F716C0FE01FF966081718136
:101B3000828193810E944900DC01CB019EAF8DAF71
:101B40008DAD9EAD9AAF89AF89AD9AAD0197F1F792
:101B50009AAF89AF81E060E040E00E94320880E007
:101B600090E0A0E8BFE38DAB9EABAFABB8AF6DA983
:101B70007EA98FA998AD20E030E04AEF54E40E949E
:101B80001F02DC01CB0189AB9AABABABBCAB69A943
:101B90007AA98BA99CA920E030E040E85FE30E948D
:101BA000550488232CF481E090E098AB8FA73FC0C8
:101BB00069A97AA98BA99CA920E03FEF4FE757E4D8
:101BC0000E94F50318164CF56DA97EA98FA998AD52
:101BD00020E030E040E251E40E941F02DC01CB0132
:101BE000BC01CD010E944900DC01CB0198AB8FA75D
:101BF0000FC088EC90E09EA78DA78DA59EA50197AC
:101C0000F1F79EA78DA78FA598A9019798AB8FA7ED
:101C10008FA598A9009769F714C069A97AA98BA91B
:101C20009CA90E944900DC01CB0198AB8FA78FA52E
:101C300098A99CA78BA78BA59CA50197F1F79CA7BA
:101C40008BA781E060E041E00E94320880E090E0F4
:101C5000A0E8BFE38FA398A7A9A7BAA76FA178A50B
:101C600089A59AA520E030E04AEF54E40E941F02C3
:101C7000DC01CB018BA39CA3ADA3BEA36BA17CA174
:101C80008DA19EA120E030E040E85FE30E94550472
:101C900088232CF481E090E09AA389A33FC06BA134
:101CA0007CA18DA19EA120E03FEF4FE757E40E9469
:101CB000F50318164CF56FA178A589A59AA520E023
:101CC00030E040E251E40E941F02DC01CB01BC0184
:101CD000CD010E944900DC01CB019AA389A30FC06A
:101CE00088EC90E098A38F8F8F8D98A10197F1F7E2
:101CF00098A38F8F89A19AA101979AA389A389A1FB
:101D00009AA1009769F714C06BA17CA18DA19EA137
:101D10000E944900DC01CB019AA389A389A19AA161
:101D20009E8F8D8F8D8D9E8D0197F1F79E8F8D8F5C
:101D3000FE01ED59FF4F8081982F917081E064E0A2
:101D4000492F0E943208FE01ED59FF4F8081882FF4
:101D500090E08270907095958795982F81E065E06E
:101D6000492F0E943208FE01ED59FF4F8081882FD4
:101D700090E0847090709595879595958795982FAC
:101D800081E066E0492F0E943208FE01ED59FF4FC5
:101D90008081882F90E088709070959587959595B3
:101DA000879595958795982F81E067E0492F0E9448
:101DB000320880E090E0A0E8BFE3898F9A8FAB8F74
:101DC000BC8F698D7A8D8B8D9C8D20E030E04AEF41
:101DD00054E40E941F02DC01CB018D8B9E8BAF8BE4
:101DE000B88F6D897E898F89988D20E030E040E83A
:101DF0005FE30E94550488232CF481E090E09C8BE3
:101E00008B8B3FC06D897E898F89988D20E03FEF55
:101E10004FE757E40E94F50318164CF5698D7A8D4B
:101E20008B8D9C8D20E030E040E251E40E941F0247
:101E3000DC01CB01BC01CD010E944900DC01CB01DA
:101E40009C8B8B8B0FC088EC90E09A8B898B898957
:101E50009A890197F1F79A8B898B8B899C890197D5
:101E60009C8B8B8B8B899C89009769F714C06D893B
:101E70007E898F89988D0E944900DC01CB019C8B63
:101E80008B8B8B899C89988B8F878F8598890197FD
:101E9000F1F7988B8F8781E060E040E00E94320884
:101EA00080E090E0A0E8BFE38B879C87AD87BE878A
:101EB0006B857C858D859E8520E030E04AEF54E47B
:101EC0000E941F02DC01CB018F839887A987BA8704
:101ED0006F81788589859A8520E030E040E85FE36E
:101EE0000E94550488232CF481E090E09E838D832A
:101EF0003FC06F81788589859A8520E03FEF4FE765
:101F000057E40E94F50318164CF56B857C858D858A
:101F10009E8520E030E040E251E40E941F02DC0197
:101F2000CB01BC01CD010E944900DC01CB019E83A5
:101F30008D830FC088EC90E09C838B838B819C8188
:101F40000197F1F79C838B838D819E8101979E83FE
:101F50008D838D819E81009769F714C06F8178858C
:101F600089859A850E944900DC01CB019E838D837F
:101F70008D819E819A83898389819A810197F1F766
:101F80009A838983CD59DF4F0FB6F894DEBF0FBE19
:101F9000CDBFCF91DF911F910F9108950F931F93A4
:101FA000DF93CF93CDB7DEB7C356D0400FB6F894CA
:101FB000DEBF0FBECDBFFE01ED59FF4F808381E034
:101FC00061E041E00E943208FE01E15AFF4F80E0EB
:101FD00090E0A0E8BFE380839183A283B3838E0166
:101FE000055A1F4FFE01E15AFF4F608171818281C6
:101FF000938120E030E04AEF54E40E941F02DC01AC
:10200000CB01F80180839183A283B383FE01E55A5B
:10201000FF4F608171818281938120E030E040E850
:102020005FE30E945504882344F4FE01E75AFF4F02
:1020300081E090E09183808364C0FE01E55AFF4F08
:10204000608171818281938120E03FEF4FE757E407
:102050000E94F50318160CF043C0FE01E15AFF4F31
:10206000608171818281938120E030E040E251E41F
:102070000E941F02DC01CB018E01075A1F4FBC01D9
:10208000CD010E944900DC01CB01F80191838083DE
:102090001FC0FE01E95AFF4F88EC90E091838083D6
:1020A000FE01E95AFF4F808191810197F1F7FE010E
:1020B000E95AFF4F91838083DE01A75ABF4FFE018B
:1020C000E75AFF4F80819181019711969C938E93DF
:1020D000FE01E75AFF4F808191810097D1F627C01A
:1020E0008E01075A1F4FFE01E55AFF4F6081718133
:1020F000828193810E944900DC01CB01F801918328
:102100008083DE01AB5ABF4FFE01E75AFF4F80814B
:1021100091818D939C93FE01EB5AFF4F80819181B9
:102120000197F1F7FE01EB5AFF4F9183808381E025
:1021300060E041E00E943208FE01EF5AFF4F80E06C
:1021400090E0A0E8BFE380839183A283B3838E01F4
:10215000035B1F4FFE01EF5AFF4F60817181828147
:10216000938120E030E04AEF54E40E941F02DC013A
:10217000CB01F80180839183A283B383FE01E35BEB
:10218000FF4F608171818281938120E030E040E8DF
:102190005FE30E945504882344F4FE01E55BFF4F92
:1021A00081E090E09183808364C0FE01E35BFF4F98
:1021B000608171818281938120E03FEF4FE757E496
:1021C0000E94F50318160CF043C0FE01EF5AFF4FB2
:1021D000608171818281938120E030E040E251E4AE
:1021E0000E941F02DC01CB018E01055B1F4FBC0169
:1021F000CD010E944900DC01CB01F801918380836D
:102200001FC0FE01E75BFF4F88EC90E09183808365
:10221000FE01E75BFF4F808191810197F1F7FE019D
:10222000E75BFF4F91838083DE01A55BBF4FFE011B
:10223000E55BFF4F80819181019711969C938E936E
:10224000FE01E55BFF4F808191810097D1F627C0A9
:102250008E01055B1F4FFE01E35BFF4F60817181C3
:10226000828193810E944900DC01CB01F8019183B6
:102270008083DE01A95BBF4FFE01E55BFF4F8081DC
:1022800091818D939C93FE01E95BFF4F8081918149
:102290000197F1F7FE01E95BFF4F91838083FE0117
:1022A000ED59FF4F8081882F90E080719070959557
:1022B0008795959587959595879595958795982F69
:1022C00081E064E0492F0E943208FE01ED59FF4F82
:1022D0008081882F90E08072907095958795959574
:1022E0008795959587959595879595958795982F39
:1022F00081E065E0492F0E943208FE01ED59FF4F51
:102300008081882F90E080749070082E892F000CB7
:10231000881F990B000C881F991F982F81E066E099
:10232000492F0E943208FE01ED59FF4F8081982FFE
:10233000991F9927991F81E067E0492F0E94320871
:10234000FE01ED5BFF4F80E090E0A0E8BFE38083FB
:102350009183A283B3838E01015C1F4FFE01ED5B6D
:10236000FF4F608171818281938120E030E04AEFEC
:1023700054E40E941F02DC01CB01F80180839183A9
:10238000A283B383FE01FF96608171818281938174
:1023900020E030E040E85FE30E94550488232CF4FD
:1023A00081E090E09EAF8DAF46C0FE01FF96608158
:1023B00071818281938120E03FEF4FE757E40E94D3
:1023C000F503181664F5FE01ED5BFF4F6081718126
:1023D0008281938120E030E040E251E40E941F02BC
:1023E000DC01CB01BC01CD010E944900DC01CB0125
:1023F0009EAF8DAF0FC088EC90E09CAF8BAF8BADE4
:102400009CAD0197F1F79CAF8BAF8DAD9EAD019761
:102410009EAF8DAF8DAD9EAD009769F716C0FE01E2
:10242000FF9660817181828193810E944900DC0165
:10243000CB019EAF8DAF8DAD9EAD9AAF89AF89AD0B
:102440009AAD0197F1F79AAF89AF81E060E040E083
:102450000E94320880E090E0A0E8BFE38DAB9EAB25
:10246000AFABB8AF6DA97EA98FA998AD20E030E0E1
:102470004AEF54E40E941F02DC01CB0189AB9AAB06
:10248000ABABBCAB69A97AA98BA99CA920E030E0D1
:1024900040E85FE30E94550488232CF481E090E03B
:1024A00098AB8FA73FC069A97AA98BA99CA920E006
:1024B0003FEF4FE757E40E94F50318164CF56DA95E
:1024C0007EA98FA998AD20E030E040E251E40E945F
:1024D0001F02DC01CB01BC01CD010E944900DC01DF
:1024E000CB0198AB8FA70FC088EC90E09EA78DA77B
:1024F0008DA59EA50197F1F79EA78DA78FA598A9F9
:10250000019798AB8FA78FA598A9009769F714C07A
:1025100069A97AA98BA99CA90E944900DC01CB0179
:1025200098AB8FA78FA598A99CA78BA78BA59CA5D7
:102530000197F1F79CA78BA781E060E041E00E9442
:10254000320880E090E0A0E8BFE38FA398A7A9A796
:10255000BAA76FA178A589A59AA520E030E04AEF37
:1025600054E40E941F02DC01CB018BA39CA3ADA30A
:10257000BEA36BA17CA18DA19EA120E030E040E82C
:102580005FE30E94550488232CF481E090E09AA335
:1025900089A33FC06BA17CA18DA19EA120E03FEF4C
:1025A0004FE757E40E94F50318164CF56FA178A584
:1025B00089A59AA520E030E040E251E40E941F0284
:1025C000DC01CB01BC01CD010E944900DC01CB0143
:1025D0009AA389A30FC088EC90E098A38F8F8F8D6A
:1025E00098A10197F1F798A38F8F89A19AA10197DC
:1025F0009AA389A389A19AA1009769F714C06BA136
:102600007CA18DA19EA10E944900DC01CB019AA36F
:1026100089A389A19AA19E8F8D8F8D8D9E8D019703
:10262000F1F79E8F8D8FFE01ED59FF4F8081982F1E
:10263000917081E064E0492F0E943208FE01ED595B
:10264000FF4F8081882F90E08270907095958795DC
:10265000982F81E065E0492F0E943208FE01ED5974
:10266000FF4F8081882F90E08470907095958795BA
:1026700095958795982F81E066E0492F0E94320852
:10268000FE01ED59FF4F8081882F90E08870907097
:10269000959587959595879595958795982F81E040
:1026A00067E0492F0E94320880E090E0A0E8BFE395
:1026B000898F9A8FAB8FBC8F698D7A8D8B8D9C8D16
:1026C00020E030E04AEF54E40E941F02DC01CB011D
:1026D0008D8B9E8BAF8BB88F6D897E898F89988DFE
:1026E00020E030E040E85FE30E94550488232CF4AA
:1026F00081E090E09C8B8B8B3FC06D897E898F89B8
:10270000988D20E03FEF4FE757E40E94F50318163D
:102710004CF5698D7A8D8B8D9C8D20E030E040E208
:1027200051E40E941F02DC01CB01BC01CD010E94DB
:102730004900DC01CB019C8B8B8B0FC088EC90E0B7
:102740009A8B898B89899A890197F1F79A8B898B62
:102750008B899C8901979C8B8B8B8B899C8900979B
:1027600069F714C06D897E898F89988D0E94490010
:10277000DC01CB019C8B8B8B8B899C89988B8F8701
:102780008F8598890197F1F7988B8F8781E060E0BA
:1027900040E00E94320880E090E0A0E8BFE38B8731
:1027A0009C87AD87BE876B857C858D859E8520E067
:1027B00030E04AEF54E40E941F02DC01CB018F831A
:1027C0009887A987BA876F81788589859A8520E05F
:1027D00030E040E85FE30E94550488232CF481E058
:1027E00090E09E838D833FC06F81788589859A852F
:1027F00020E03FEF4FE757E40E94F50318164CF531
:102800006B857C858D859E8520E030E040E251E43B
:102810000E941F02DC01CB01BC01CD010E944900D6
:10282000DC01CB019E838D830FC088EC90E09C83FC
:102830008B838B819C810197F1F79C838B838D81A6
:102840009E8101979E838D838D819E81009769F77C
:1028500014C06F81788589859A850E944900DC01C2
:10286000CB019E838D838D819E819A83898389810B
:102870009A810197F1F79A838983CD59DF4F0FB67B
:10288000F894DEBF0FBECDBFCF91DF911F910F91A6
:102890000895DF93CF9300D00F92CDB7DEB79B831F
:1028A0008A8319820EC08981282F30E08A819B811A
:1028B000FC01E20FF31F80810E94CE0F89818F5FA0
:1028C00089838981282F30E08A819B81FC01E20F76
:1028D000F31F8081882339F70F900F900F90CF91CD
:1028E000DF910895DF93CF9300D000D00F92CDB742
:1028F000DEB78A836B838A81282F30E03D832C8367
:102900008C819D8181309105C1F02C813D812230E7
:1029100031052CF48C819D81009761F019C02C81C8
:102920003D812230310569F08C819D818330910594
:1029300061F00EC08B8189830BC08B81805C8983A1
:1029400007C08B81805F898303C08B81805B898313
:10295000898180680E94530B0F900F900F900F9009
:102960000F90CF91DF910895DF93CF9300D000D0E7
:10297000CDB7DEB789836A835C834B8389816A81A3
:102980000E9472148B819C810E9449140F900F90B9
:102990000F900F90CF91DF910895DF93CF93CDB734
:1029A000DEB762970FB6F894DEBF0FBECDBF9A8B2D
:1029B000898B89899A899E012F5F3F4FB9014AE02F
:1029C00050E00E94A920CE0101960E94491462960F
:1029D0000FB6F894DEBF0FBECDBFCF91DF91089543
:1029E000DF93CF93CDB7DEB781E00E94530BCF9139
:1029F000DF910895DF93CF93CDB7DEB70E94850AAC
:102A00000E94A10A0E9409150E9425150E94CA1958
:102A1000FFCFDF93CF93CDB7DEB7A1E3B0E0E1E323
:102A2000F0E080818B708C93AAE3B0E0E4E3F0E007
:102A300080818F608C93ABE3B0E0EBE3F0E08081CA
:102A40008F608C93CF91DF9108950F931F93DF9345
:102A5000CF93CDB7DEB7C455D0400FB6F894DEBFE4
:102A60000FBECDBF0E94A10A20E630E080E065E005
:102A7000A9010E94B414ABE3B0E0EBE3F0E0808185
:102A8000807F8C93FE01EF5AFF4F80E090E0AAEF29
:102A9000B3E480839183A283B3838E01035B1F4FD2
:102AA000FE01EF5AFF4F608171818281938120E0A6
:102AB00030E04AEF54E40E941F02DC01CB01F80130
:102AC00080839183A283B383FE01E35BFF4F608128
:102AD00071818281938120E030E040E85FE30E94D1
:102AE0005504882344F4FE01E55BFF4F81E090E04C
:102AF0009183808364C0FE01E35BFF4F608171813D
:102B00008281938120E03FEF4FE757E40E94F50375
:102B100018160CF043C0FE01EF5AFF4F608171811F
:102B20008281938120E030E040E251E40E941F0264
:102B3000DC01CB018E01055B1F4FBC01CD010E9462
:102B40004900DC01CB01F801918380831FC0FE01A5
:102B5000E75BFF4F88EC90E091838083FE01E75BA9
:102B6000FF4F808191810197F1F7FE01E75BFF4FF5
:102B700091838083DE01A55BBF4FFE01E55BFF4FC4
:102B800080819181019711969C938E93FE01E55B64
:102B9000FF4F808191810097D1F627C08E01055BA0
:102BA0001F4FFE01E35BFF4F608171818281938142
:102BB0000E944900DC01CB01F80191838083DE0192
:102BC000A95BBF4FFE01E55BFF4F808191818D9333
:102BD0009C93FE01E95BFF4F808191810197F1F7A2
:102BE000FE01E95BFF4F91838083ABE3B0E0EBE351
:102BF000F0E080818F608C93FE01ED5BFF4F80E001
:102C000090E0AAEFB3E480839183A283B3838E0123
:102C1000015C1F4FFE01ED5BFF4F6081718182817E
:102C2000938120E030E04AEF54E40E941F02DC016F
:102C3000CB01F80180839183A283B383FE01FF96C9
:102C4000608171818281938120E030E040E85FE320
:102C50000E94550488232CF481E090E09EAF8DAF54
:102C600046C0FE01FF96608171818281938120E0E0
:102C70003FEF4FE757E40E94F503181664F5FE0195
:102C8000ED5BFF4F608171818281938120E030E0B4
:102C900040E251E40E941F02DC01CB01BC01CD01E6
:102CA0000E944900DC01CB019EAF8DAF0FC088ECC4
:102CB00090E09CAF8BAF8BAD9CAD0197F1F79CAFD3
:102CC0008BAF8DAD9EAD01979EAF8DAF8DAD9EAD9F
:102CD000009769F716C0FE01FF96608171818281BD
:102CE00093810E944900DC01CB019EAF8DAF8DAD79
:102CF0009EAD9AAF89AF89AD9AAD0197F1F79AAFC2
:102D000089AFABE3B0E0EBE3F0E08081807F8C93B0
:102D100080E090E0AAEFB3E48DAB9EABAFABB8AF71
:102D20006DA97EA98FA998AD20E030E04AEF54E468
:102D30000E941F02DC01CB0189AB9AABABABBCABF1
:102D400069A97AA98BA99CA920E030E040E85FE35B
:102D50000E94550488232CF481E090E098AB8FA763
:102D60003FC069A97AA98BA99CA920E03FEF4FE752
:102D700057E40E94F50318164CF56DA97EA98FA99A
:102D800098AD20E030E040E251E40E941F02DC01F7
:102D9000CB01BC01CD010E944900DC01CB0198AB05
:102DA0008FA70FC088EC90E09EA78DA78DA59EA54C
:102DB0000197F1F79EA78DA78FA598A9019798ABCA
:102DC0008FA78FA598A9009769F714C069A97AA958
:102DD0008BA99CA90E944900DC01CB0198AB8FA76D
:102DE0008FA598A99CA78BA78BA59CA50197F1F708
:102DF0009CA78BA7ABE3B0E0EBE3F0E080818F60B2
:102E00008C9380E090E0AAEFB3E48FA398A7A9A7E2
:102E1000BAA76FA178A589A59AA520E030E04AEF6E
:102E200054E40E941F02DC01CB018BA39CA3ADA341
:102E3000BEA36BA17CA18DA19EA120E030E040E863
:102E40005FE30E94550488232CF481E090E09AA36C
:102E500089A33FC06BA17CA18DA19EA120E03FEF83
:102E60004FE757E40E94F50318164CF56FA178A5BB
:102E700089A59AA520E030E040E251E40E941F02BB
:102E8000DC01CB01BC01CD010E944900DC01CB017A
:102E90009AA389A30FC088EC90E098A38F8F8F8DA1
:102EA00098A10197F1F798A38F8F89A19AA1019713
:102EB0009AA389A389A19AA1009769F714C06BA16D
:102EC0007CA18DA19EA10E944900DC01CB019AA3A7
:102ED00089A389A19AA19E8F8D8F8D8D9E8D01973B
:102EE000F1F79E8F8D8FABE3B0E0EBE3F0E08081F4
:102EF000807F8C9380E090E0AAEFB3E4898F9A8F73
:102F0000AB8FBC8F698D7A8D8B8D9C8D20E030E0EE
:102F10004AEF54E40E941F02DC01CB018D8B9E8B93
:102F2000AF8BB88F6D897E898F89988D20E030E0D6
:102F300040E85FE30E94550488232CF481E090E090
:102F40009C8B8B8B3FC06D897E898F89988D20E00B
:102F50003FEF4FE757E40E94F50318164CF5698DD3
:102F60007A8D8B8D9C8D20E030E040E251E40E9410
:102F70001F02DC01CB01BC01CD010E944900DC0134
:102F8000CB019C8B8B8B0FC088EC90E09A8B898B4C
:102F900089899A890197F1F79A8B898B8B899C890A
:102FA00001979C8B8B8B8B899C89009769F714C048
:102FB0006D897E898F89988D0E944900DC01CB0143
:102FC0009C8B8B8B8B899C89988B8F878F8598891D
:102FD0000197F1F7988B8F87ABE3B0E0EBE3F0E07C
:102FE00080818F608C930E94F014ABE3B0E0EBE340
:102FF000F0E080818F608C9380E090E0AAEFB3E4F2
:103000008B879C87AD87BE876B857C858D859E85EC
:1030100020E030E04AEF54E40E941F02DC01CB01C3
:103020008F839887A987BA876F81788589859A85E4
:1030300020E030E040E85FE30E94550488232CF450
:1030400081E090E09E838D833FC06F817885898584
:103050009A8520E03FEF4FE757E40E94F5031816EA
:103060004CF56B857C858D859E8520E030E040E2C7
:1030700051E40E941F02DC01CB01BC01CD010E9482
:103080004900DC01CB019E838D830FC088EC90E06A
:103090009C838B838B819C810197F1F79C838B832D
:1030A0008D819E8101979E838D838D819E81009766
:1030B00069F714C06F81788589859A850E944900D7
:1030C000DC01CB019E838D838D819E819A838983D0
:1030D00089819A810197F1F79A838983CC5ADF4FCE
:1030E0000FB6F894DEBF0FBECDBFCF91DF911F9119
:1030F0000F9108951F920F920FB60F9211242F93E4
:103100003F934F935F936F937F938F939F93AF936F
:10311000BF93EF93FF93DF93CF93CDB7DEB72E9797
:10312000DEBFCDBFE0E3F0E08081882F90E08071CA
:103130009070009711F1ABE3B0E0EBE3F0E0808139
:103140008E7F8C938091CC019091CD01A091CE0186
:10315000B091CF01BC01CD0120E030E040E85FE359
:103160000E94F201DC01CB018093CC019093CD0150
:10317000A093CE01B093CF017CC0E0E3F0E080816A
:10318000882F90E080729070009711F1ABE3B0E06F
:10319000EBE3F0E080818D7F8C938091CC01909166
:1031A000CD01A091CE01B091CF01BC01CD0120E0B5
:1031B00030E040E050E40E941903DC01CB01809331
:1031C000CC019093CD01A093CE01B093CF0151C01B
:1031D000E0E3F0E08081882F90E0807490700097A9
:1031E00011F1ABE3B0E0EBE3F0E080818B7F8C93F7
:1031F0008091CC019091CD01A091CE01B091CF01F1
:10320000BC01CD0120E030E040E450E40E94C10167
:10321000DC01CB018093CC019093CD01A093CE0132
:10322000B093CF0126C0E0E3F0E0808188230CF565
:10323000ABE3B0E0EBE3F0E08081877F8C9380919B
:10324000CC019091CD01A091CE01B091CF01BC01F4
:10325000CD0120E030E040E850E40E941F02DC0194
:10326000CB018093CC019093CD01A093CE01B0937C
:10327000CF0180E090E0AAEFB3E48B879C87AD8715
:10328000BE876B857C858D859E8520E030E04AEF8A
:1032900054E40E941F02DC01CB018F839887A98729
:1032A000BA876F81788589859A8520E030E040E88B
:1032B0005FE30E94550488232CF481E090E09E8314
:1032C0008D833FC06F81788589859A8520E03FEFA7
:1032D0004FE757E40E94F50318164CF56B857C8583
:1032E0008D859E8520E030E040E251E40E941F027F
:1032F000DC01CB01BC01CD010E944900DC01CB0106
:103300009E838D830FC088EC90E09C838B838B81A0
:103310009C810197F1F79C838B838D819E8101971E
:103320009E838D838D819E81009769F714C06F8184
:10333000788589859A850E944900DC01CB019E83AE
:103340008D838D819E819A83898389819A8101975A
:10335000F1F79A838983ABE3B0E0EBE3F0E080819F
:103360008F608C930E94991D2E96DEBFCDBFCF91AA
:10337000DF91FF91EF91BF91AF919F918F917F91DD
:103380006F915F914F913F912F910F900FBE0F90D2
:103390001F9018950F931F93DF93CF93CDB7DEB790
:1033A000CA54D0400FB6F894DEBF0FBECDBF809197
:1033B000C3019091C4018D33910508F0B0C0809194
:1033C000C3019091C401009709F09FC084E992E085
:1033D0009093C4018093C3010E94F01428E630E06A
:1033E00080E064E0A9010E94B41421E730E081E0AC
:1033F00060E0A9010E94B4141092C601FE01ED5BC9
:10340000FF4F80E090E0AAEFB4E480839183A28331
:10341000B3838E01015C1F4FFE01ED5BFF4F6081A6
:1034200071818281938120E030E04AEF54E40E9470
:103430001F02DC01CB01F80180839183A283B38357
:10344000FE01FF96608171818281938120E030E0EE
:1034500040E85FE30E94550488232CF481E090E06B
:103460009EAF8DAF46C0FE01FF9660817181828163
:10347000938120E03FEF4FE757E40E94F5031816D1
:1034800064F5FE01ED5BFF4F608171818281938164
:1034900020E030E040E251E40E941F02DC01CB0159
:1034A000BC01CD010E944900DC01CB019EAF8DAF74
:1034B0000FC088EC90E09CAF8BAF8BAD9CAD0197BB
:1034C000F1F79CAF8BAF8DAD9EAD01979EAF8DAFE9
:1034D0008DAD9EAD009769F716C0FE01FF96608125
:1034E0007181828193810E944900DC01CB019EAFF2
:1034F0008DAF8DAD9EAD9AAF89AF89AD9AAD019775
:10350000F1F79AAF89AF0E9425158091C301909180
:10351000C4010A979093C4018093C30109C08091AC
:10352000C3019091C40188979093C4018093C30113
:1035300082E890E00E944914FE01E75BFF4F118290
:103540001082DCC20E949920FE01E95BFF4F25E05A
:1035500030E0B9010E94EA1F91838083FE01E95B9C
:10356000FF4F808191818130910509F0A8C0ABE3C4
:10357000B0E0EBE3F0E080818E7F8C938091C3011B
:103580009091C401CC01A0E0B0E0BC01CD010E944B
:10359000D904DC01CB018DAB9EABAFABB8AF6DA94D
:1035A0007EA98FA998AD20E030E04AEF54E40E9454
:1035B0001F02DC01CB0189AB9AABABABBCAB69A9F9
:1035C0007AA98BA99CA920E030E040E85FE30E9443
:1035D000550488232CF481E090E098AB8FA73FC07E
:1035E00069A97AA98BA99CA920E03FEF4FE757E48E
:1035F0000E94F50318164CF56DA97EA98FA998AD08
:1036000020E030E040E251E40E941F02DC01CB01E7
:10361000BC01CD010E944900DC01CB0198AB8FA712
:103620000FC088EC90E09EA78DA78DA59EA5019761
:10363000F1F79EA78DA78FA598A9019798AB8FA7A3
:103640008FA598A9009769F714C069A97AA98BA9D1
:103650009CA90E944900DC01CB0198AB8FA78FA5E4
:1036600098A99CA78BA78BA59CA50197F1F79CA770
:103670008BA7ABE3B0E0EBE3F0E0808181608C935B
:103680008091C8019091C901A091CA01B091CB016C
:10369000BC01CD0120E030E040E85FE30E94F20190
:1036A000DC01CB018093C8019093C901A093CA01AA
:1036B000B093CB018091C7018F5F8093C701FE015A
:1036C000E95BFF4F808191818230910509F0A8C0AC
:1036D000ABE3B0E0EBE3F0E080818D7F8C938091F1
:1036E000C3019091C401CC01A0E0B0E0BC01CD01C8
:1036F0000E94D904DC01CB018FA398A7A9A7BAA780
:103700006FA178A589A59AA520E030E04AEF54E49E
:103710000E941F02DC01CB018BA39CA3ADA3BEA31F
:103720006BA17CA18DA19EA120E030E040E85FE389
:103730000E94550488232CF481E090E09AA389A389
:103740003FC06BA17CA18DA19EA120E03FEF4FE780
:1037500057E40E94F50318164CF56FA178A589A5CA
:103760009AA520E030E040E251E40E941F02DC0113
:10377000CB01BC01CD010E944900DC01CB019AA321
:1037800089A30FC088EC90E098A38F8F8F8D98A1AC
:103790000197F1F798A38F8F89A19AA101979AA316
:1037A00089A389A19AA1009769F714C06BA17CA194
:1037B0008DA19EA10E944900DC01CB019AA389A39F
:1037C00089A19AA19E8F8D8F8D8D9E8D0197F1F786
:1037D0009E8F8D8FABE3B0E0EBE3F0E08081826001
:1037E0008C938091C8019091C901A091CA01B091B8
:1037F000CB01BC01CD0120E030E040E050E40E946C
:103800001903DC01CB018093C8019093C901A093F7
:10381000CA01B093CB018091C7018F5F8093C7012C
:10382000FE01E95BFF4F808191818330910509F0B2
:10383000A8C0ABE3B0E0EBE3F0E080818B7F8C933A
:103840008091C3019091C401CC01A0E0B0E0BC0123
:10385000CD010E94D904DC01CB01898F9A8FAB8FF7
:10386000BC8F698D7A8D8B8D9C8D20E030E04AEF86
:1038700054E40E941F02DC01CB018D8B9E8BAF8B29
:10388000B88F6D897E898F89988D20E030E040E87F
:103890005FE30E94550488232CF481E090E09C8B28
:1038A0008B8B3FC06D897E898F89988D20E03FEF9B
:1038B0004FE757E40E94F50318164CF5698D7A8D91
:1038C0008B8D9C8D20E030E040E251E40E941F028D
:1038D000DC01CB01BC01CD010E944900DC01CB0120
:1038E0009C8B8B8B0FC088EC90E09A8B898B89899D
:1038F0009A890197F1F79A8B898B8B899C8901971B
:103900009C8B8B8B8B899C89009769F714C06D8980
:103910007E898F89988D0E944900DC01CB019C8BA8
:103920008B8B8B899C89988B8F878F859889019742
:10393000F1F7988B8F87ABE3B0E0EBE3F0E08081A9
:1039400084608C938091C8019091C901A091CA01B3
:10395000B091CB01BC01CD0120E030E040E450E467
:103960000E94C101DC01CB018093C8019093C90181
:10397000A093CA01B093CB018091C7018F5F809360
:10398000C701FE01E95BFF4F808191818430910581
:1039900009F0A8C0ABE3B0E0EBE3F0E08081877F03
:1039A0008C938091C3019091C401CC01A0E0B0E060
:1039B000BC01CD010E94D904DC01CB018B879C871F
:1039C000AD87BE876B857C858D859E8520E030E048
:1039D0004AEF54E40E941F02DC01CB018F839887D9
:1039E000A987BA876F81788589859A8520E030E03C
:1039F00040E85FE30E94550488232CF481E090E0C6
:103A00009E838D833FC06F81788589859A8520E06C
:103A10003FEF4FE757E40E94F50318164CF56B850E
:103A20007C858D859E8520E030E040E251E40E9457
:103A30001F02DC01CB01BC01CD010E944900DC0169
:103A4000CB019E838D830FC088EC90E09C838B8399
:103A50008B819C810197F1F79C838B838D819E8163
:103A600001979E838D838D819E81009769F714C095
:103A70006F81788589859A850E944900DC01CB0198
:103A80009E838D838D819E819A83898389819A818A
:103A90000197F1F79A838983ABE3B0E0EBE3F0E0C1
:103AA000808188608C938091C8019091C901A09118
:103AB000CA01B091CB01BC01CD0120E030E040E86B
:103AC00050E40E941F02DC01CB018093C801909357
:103AD000C901A093CA01B093CB018091C7018F5F48
:103AE0008093C701DE01A75BBF4FFE01E75BFF4F7D
:103AF00080819181019611969C938E93FE01E75BE4
:103B0000FF4F80819181843091050CF41BCD0E9480
:103B1000F01488E890E00E944914C65BDF4F0FB6AE
:103B2000F894DEBF0FBECDBFCF91DF911F910F91F3
:103B30000895DF93CF93CDB7DEB7AA970FB6F89469
:103B4000DEBF0FBECDBFEBC11092C7011092C20104
:103B50008091C8019091C901A091CA01B091CB0197
:103B60002091CC013091CD014091CE015091CF01F7
:103B7000BC01CD010E94C503882309F0ABC00E949F
:103B8000F0148DE890E00E9449148091C6018F5F87
:103B90008093C60125E930E081E060E0A9010E9440
:103BA000B41481E066E00E9472148091C601882FEF
:103BB00090E00E94CD1480E090E8ABE3B4E48FA3E2
:103BC00098A7A9A7BAA76FA178A589A59AA520E06B
:103BD00030E04AEF54E40E941F02DC01CB018BA3CA
:103BE0009CA3ADA3BEA36BA17CA18DA19EA120E04F
:103BF00030E040E85FE30E94550488232CF481E024
:103C000090E09AA389A33FC06BA17CA18DA19EA146
:103C100020E03FEF4FE757E40E94F50318164CF5FC
:103C20006FA178A589A59AA520E030E040E251E493
:103C30000E941F02DC01CB01BC01CD010E944900A2
:103C4000DC01CB019AA389A30FC088EC90E098A374
:103C50008F8F8F8D98A10197F1F798A38F8F89A1EE
:103C60009AA101979AA389A389A19AA1009769F7BC
:103C700014C06BA17CA18DA19EA10E944900DC0112
:103C8000CB019AA389A389A19AA19E8F8D8F8D8D37
:103C90009E8D0197F1F79E8F8D8F0E94F01480E02A
:103CA00090E0A0E0B0E08093C8019093C901A09398
:103CB000CA01B093CB0180E090E0A0E0B0E0809337
:103CC000CC019093CD01A093CE01B093CF010E947F
:103CD000CA1925C10E94F0148BE990E00E94491492
:103CE00025E930E081E060E0A9010E94B41481E0A0
:103CF00066E00E9472148091C601882F90E00E94B5
:103D0000CD141092C60180E090E0AAEFB3E4898F51
:103D10009A8FAB8FBC8F698D7A8D8B8D9C8D20E0B7
:103D200030E04AEF54E40E941F02DC01CB018D8B8E
:103D30009E8BAF8BB88F6D897E898F89988D20E09F
:103D400030E040E85FE30E94550488232CF481E0D2
:103D500090E09C8B8B8B3FC06D897E898F89988D7D
:103D600020E03FEF4FE757E40E94F50318164CF5AB
:103D7000698D7A8D8B8D9C8D20E030E040E251E49E
:103D80000E941F02DC01CB01BC01CD010E94490051
:103D9000DC01CB019C8B8B8B0FC088EC90E09A8B65
:103DA000898B89899A890197F1F79A8B898B8B89FD
:103DB0009C8901979C8B8B8B8B899C89009769F7D9
:103DC00014C06D897E898F89988D0E944900DC011D
:103DD000CB019C8B8B8B8B899C89988B8F878F8554
:103DE00098890197F1F7988B8F870E94F01485EAE4
:103DF00090E00E94491480E090E0AAE7B4E48B8749
:103E00009C87AD87BE876B857C858D859E8520E0F0
:103E100030E04AEF54E40E941F02DC01CB018F83A3
:103E20009887A987BA876F81788589859A8520E0E8
:103E300030E040E85FE30E94550488232CF481E0E1
:103E400090E09E838D833FC06F81788589859A85B8
:103E500020E03FEF4FE757E40E94F50318164CF5BA
:103E60006B857C858D859E8520E030E040E251E4C5
:103E70000E941F02DC01CB01BC01CD010E94490060
:103E8000DC01CB019E838D830FC088EC90E09C8386
:103E90008B838B819C810197F1F79C838B838D8130
:103EA0009E8101979E838D838D819E81009769F706
:103EB00014C06F81788589859A850E944900DC014C
:103EC000CB019E838D838D819E819A838983898195
:103ED0009A810197F1F79A8389830E94F01484E90B
:103EE00092E09093C4018093C30180E090E0A0E051
:103EF000B0E08093C8019093C901A093CA01B09328
:103F0000CB0180E090E0A0E0B0E08093CC01909302
:103F1000CD01A093CE01B093CF010E94CA19909118
:103F2000C2018091C701981709F40ECE8091C20199
:103F30008F5F8093C201AA960FB6F894DEBF0FBEC2
:103F4000CDBFCF91DF9108950F931F93DF93CF9350
:103F50000F92CDB7DEB78983E2E5F0E010820CE581
:103F600010E08981882F90E0A0E0B0E0BC01CD0195
:103F70000E94D904DC01CB01BC01CD0120E030E07E
:103F800048EC52E40E941903DC01CB01BC01CD01D5
:103F900020E030E04FE753E40E941F02DC01CB0138
:103FA000BC01CD010E944900DC01CB01F8018083F6
:103FB00080E062E041E00E944707A3E5B0E0E3E56E
:103FC000F0E080818A668C930F90CF91DF911F91F2
:103FD0000F91089597FB092E07260AD077FD04D08C
:103FE0000CD006D000201AF4709561957F4F08958B
:103FF000F6F7909581959F4F0895AA1BBB1B51E141
:1040000007C0AA1FBB1FA617B70710F0A61BB70B48
:10401000881F991F5A95A9F780959095BC01CD01ED
:1040200008952F923F924F925F926F927F928F925C
:104030009F92AF92BF92CF92DF92EF92FF920F9337
:104040001F93CF93DF93CDB7DEB7CA1BDB0B0FB641
:10405000F894DEBF0FBECDBF09942A8839884888FE
:104060005F846E847D848C849B84AA84B984C88494
:10407000DF80EE80FD800C811B81AA81B981CE0F8B
:10408000D11D0FB6F894DEBF0FBECDBFED01089570
:10409000A0E0B0E0EEE4F0E20C941920EC01A8807E
:1040A000B980CA80DB80A114B104C104D10441F4F9
:1040B00084E2A82E89EDB82E8BE5C82E87E0D82E95
:1040C000C601B5012DE133EF41E050E00E94F92037
:1040D00027EA31E440E050E00E94DA207B018C01C5
:1040E000C601B5012DE133EF41E050E00E94F92017
:1040F000CA01B9012CEE34EF4FEF5FEF0E94DA20D6
:104100006E0D7F1D801F911F97FF04C0615070408E
:1041100080409048688379838A839B839B013F77A3
:10412000C901CDB7DEB7EAE00C9435200E944820E3
:1041300008958EEB91E00E9448200895A0E0B0E041
:104140008093BE019093BF01A093C001B093C101C1
:104150000895FB019F01E8944230C4F04532B4F465
:104160004A3029F497FB1EF4909581959F4F642F58
:1041700077270E94FD1F805D8A330CF0895D819353
:10418000CB010097A1F716F45DE251931082C901AB
:104190000C94CA20DC01FC01672F71917723E1F7B1
:1041A000329704C07C916D9370836291AE17BF0704
:1041B000C8F30895629FD001739FF001829FE00DC4
:1041C000F11D649FE00DF11D929FF00D839FF00D96
:1041D000749FF00D659FF00D9927729FB00DE11D42
:1041E000F91F639FB00DE11DF91FBD01CF0111241F
:1041F000089597FB092E05260ED057FD04D014D044
:104200000AD0001C38F450954095309521953F4FC9
:104210004F4F5F4F0895F6F7909580957095619593
:104220007F4F8F4F9F4F0895A1E21A2EAA1BBB1BF1
:10423000FD010DC0AA1FBB1FEE1FFF1FA217B30772
:10424000E407F50720F0A21BB30BE40BF50B661F88
:10425000771F881F991F1A9469F76095709580954C
:1042600090959B01AC01BD01CF010895F894FFCF5B
:1042700057454C434F4D4500434F4E4752415453D1
:1042800000596F752066696E6973686564204F4FC9
:104290004800574154434800504C415900636F72E5
:1042A000726563740073636F72650067616D65208A
:1042B0006F7665720053746172742061206E657749
:1042C0002067616D65000000000000000000000133
:1042D00002020303030304040404040404040505A4
:1042E000050505050505050505050505050506067C
:1042F000060606060606060606060606060606065E
:10430000060606060606060606060606060607074B
:10431000070707070707070707070707070707072D
:10432000070707070707070707070707070707071D
:10433000070707070707070707070707070707070D
:1043400007070707070707070707070707070808FB
:1043500008080808080808080808080808080808DD
:1043600008080808080808080808080808080808CD
:1043700008080808080808080808080808080808BD
:1043800008080808080808080808080808080808AD
:10439000080808080808080808080808080808089D
:1043A000080808080808080808080808080808088D
:1043B000080808080808080808080808080808087D
:1043C000080808080808080808080808080801007C
:0643D00000000194020050
:0400000300002A4A85
:00000001FF
